{
  "address": "0x6F5CC3EDEa92AB52b75bad50Bcf4C6daa781B87e",
  "abi": [
    {
      "inputs": [
        {
          "internalType": "address",
          "name": "_depo",
          "type": "address"
        },
        {
          "internalType": "address",
          "name": "_staking",
          "type": "address"
        },
        {
          "internalType": "address",
          "name": "_OHM",
          "type": "address"
        },
        {
          "internalType": "address",
          "name": "_sOHM",
          "type": "address"
        },
        {
          "internalType": "address",
          "name": "_gOHM",
          "type": "address"
        }
      ],
      "stateMutability": "nonpayable",
      "type": "constructor"
    },
    {
      "anonymous": false,
      "inputs": [
        {
          "indexed": true,
          "internalType": "address",
          "name": "previousOwner",
          "type": "address"
        },
        {
          "indexed": true,
          "internalType": "address",
          "name": "newOwner",
          "type": "address"
        }
      ],
      "name": "OwnershipTransferred",
      "type": "event"
    },
    {
      "anonymous": false,
      "inputs": [
        {
          "indexed": false,
          "internalType": "address",
          "name": "sender",
          "type": "address"
        },
        {
          "indexed": false,
          "internalType": "address",
          "name": "token",
          "type": "address"
        },
        {
          "indexed": false,
          "internalType": "uint256",
          "name": "tokensRec",
          "type": "uint256"
        },
        {
          "indexed": false,
          "internalType": "address",
          "name": "referral",
          "type": "address"
        }
      ],
      "name": "zapBond",
      "type": "event"
    },
    {
      "anonymous": false,
      "inputs": [
        {
          "indexed": false,
          "internalType": "address",
          "name": "sender",
          "type": "address"
        },
        {
          "indexed": false,
          "internalType": "address",
          "name": "token",
          "type": "address"
        },
        {
          "indexed": false,
          "internalType": "uint256",
          "name": "tokensRec",
          "type": "uint256"
        },
        {
          "indexed": false,
          "internalType": "address",
          "name": "referral",
          "type": "address"
        }
      ],
      "name": "zapStake",
      "type": "event"
    },
    {
      "inputs": [],
      "name": "OHM",
      "outputs": [
        {
          "internalType": "address",
          "name": "",
          "type": "address"
        }
      ],
      "stateMutability": "view",
      "type": "function"
    },
    {
      "inputs": [
        {
          "internalType": "address",
          "name": "fromToken",
          "type": "address"
        },
        {
          "internalType": "uint256",
          "name": "amountIn",
          "type": "uint256"
        },
        {
          "internalType": "address",
          "name": "principal",
          "type": "address"
        },
        {
          "internalType": "address",
          "name": "swapTarget",
          "type": "address"
        },
        {
          "internalType": "bytes",
          "name": "swapData",
          "type": "bytes"
        },
        {
          "internalType": "address",
          "name": "referral",
          "type": "address"
        },
        {
          "internalType": "uint256",
          "name": "maxPrice",
          "type": "uint256"
        },
        {
          "internalType": "uint256",
          "name": "bondId",
          "type": "uint256"
        }
      ],
      "name": "ZapBond",
      "outputs": [
        {
          "internalType": "uint256",
          "name": "OHMRec",
          "type": "uint256"
        }
      ],
      "stateMutability": "payable",
      "type": "function"
    },
    {
      "inputs": [
        {
          "internalType": "address",
          "name": "fromToken",
          "type": "address"
        },
        {
          "internalType": "uint256",
          "name": "amountIn",
          "type": "uint256"
        },
        {
          "internalType": "address",
          "name": "toToken",
          "type": "address"
        },
        {
          "internalType": "uint256",
          "name": "minToToken",
          "type": "uint256"
        },
        {
          "internalType": "address",
          "name": "swapTarget",
          "type": "address"
        },
        {
          "internalType": "bytes",
          "name": "swapData",
          "type": "bytes"
        },
        {
          "internalType": "address",
          "name": "referral",
          "type": "address"
        }
      ],
      "name": "ZapStake",
      "outputs": [
        {
          "internalType": "uint256",
          "name": "OHMRec",
          "type": "uint256"
        }
      ],
      "stateMutability": "payable",
      "type": "function"
    },
    {
      "inputs": [
        {
          "internalType": "address",
          "name": "",
          "type": "address"
        },
        {
          "internalType": "address",
          "name": "",
          "type": "address"
        }
      ],
      "name": "affiliateBalance",
      "outputs": [
        {
          "internalType": "uint256",
          "name": "",
          "type": "uint256"
        }
      ],
      "stateMutability": "view",
      "type": "function"
    },
    {
      "inputs": [
        {
          "internalType": "address",
          "name": "",
          "type": "address"
        }
      ],
      "name": "affiliates",
      "outputs": [
        {
          "internalType": "bool",
          "name": "",
          "type": "bool"
        }
      ],
      "stateMutability": "view",
      "type": "function"
    },
    {
      "inputs": [
        {
          "internalType": "address[]",
          "name": "tokens",
          "type": "address[]"
        }
      ],
      "name": "affilliateWithdraw",
      "outputs": [],
      "stateMutability": "nonpayable",
      "type": "function"
    },
    {
      "inputs": [
        {
          "internalType": "address",
          "name": "",
          "type": "address"
        }
      ],
      "name": "approvedTargets",
      "outputs": [
        {
          "internalType": "bool",
          "name": "",
          "type": "bool"
        }
      ],
      "stateMutability": "view",
      "type": "function"
    },
    {
      "inputs": [],
      "name": "depo",
      "outputs": [
        {
          "internalType": "address",
          "name": "",
          "type": "address"
        }
      ],
      "stateMutability": "view",
      "type": "function"
    },
    {
      "inputs": [
        {
          "internalType": "address",
          "name": "",
          "type": "address"
        }
      ],
      "name": "feeWhitelist",
      "outputs": [
        {
          "internalType": "bool",
          "name": "",
          "type": "bool"
        }
      ],
      "stateMutability": "view",
      "type": "function"
    },
    {
      "inputs": [],
      "name": "gOHM",
      "outputs": [
        {
          "internalType": "address",
          "name": "",
          "type": "address"
        }
      ],
      "stateMutability": "view",
      "type": "function"
    },
    {
      "inputs": [],
      "name": "goodwill",
      "outputs": [
        {
          "internalType": "uint256",
          "name": "",
          "type": "uint256"
        }
      ],
      "stateMutability": "view",
      "type": "function"
    },
    {
      "inputs": [],
      "name": "owner",
      "outputs": [
        {
          "internalType": "address",
          "name": "",
          "type": "address"
        }
      ],
      "stateMutability": "view",
      "type": "function"
    },
    {
      "inputs": [],
      "name": "renounceOwnership",
      "outputs": [],
      "stateMutability": "nonpayable",
      "type": "function"
    },
    {
      "inputs": [],
      "name": "sOHM",
      "outputs": [
        {
          "internalType": "address",
          "name": "",
          "type": "address"
        }
      ],
      "stateMutability": "view",
      "type": "function"
    },
    {
      "inputs": [
        {
          "internalType": "address[]",
          "name": "targets",
          "type": "address[]"
        },
        {
          "internalType": "bool[]",
          "name": "isApproved",
          "type": "bool[]"
        }
      ],
      "name": "setApprovedTargets",
      "outputs": [],
      "stateMutability": "nonpayable",
      "type": "function"
    },
    {
      "inputs": [
        {
          "internalType": "address",
          "name": "_affiliate",
          "type": "address"
        },
        {
          "internalType": "bool",
          "name": "_status",
          "type": "bool"
        }
      ],
      "name": "set_affiliate",
      "outputs": [],
      "stateMutability": "nonpayable",
      "type": "function"
    },
    {
      "inputs": [
        {
          "internalType": "address",
          "name": "zapAddress",
          "type": "address"
        },
        {
          "internalType": "bool",
          "name": "status",
          "type": "bool"
        }
      ],
      "name": "set_feeWhitelist",
      "outputs": [],
      "stateMutability": "nonpayable",
      "type": "function"
    },
    {
      "inputs": [
        {
          "internalType": "uint256",
          "name": "_new_affiliateSplit",
          "type": "uint256"
        }
      ],
      "name": "set_new_affiliateSplit",
      "outputs": [],
      "stateMutability": "nonpayable",
      "type": "function"
    },
    {
      "inputs": [
        {
          "internalType": "uint256",
          "name": "_new_goodwill",
          "type": "uint256"
        }
      ],
      "name": "set_new_goodwill",
      "outputs": [],
      "stateMutability": "nonpayable",
      "type": "function"
    },
    {
      "inputs": [],
      "name": "staking",
      "outputs": [
        {
          "internalType": "address",
          "name": "",
          "type": "address"
        }
      ],
      "stateMutability": "view",
      "type": "function"
    },
    {
      "inputs": [],
      "name": "stopped",
      "outputs": [
        {
          "internalType": "bool",
          "name": "",
          "type": "bool"
        }
      ],
      "stateMutability": "view",
      "type": "function"
    },
    {
      "inputs": [],
      "name": "toggleContractActive",
      "outputs": [],
      "stateMutability": "nonpayable",
      "type": "function"
    },
    {
      "inputs": [
        {
          "internalType": "address",
          "name": "",
          "type": "address"
        }
      ],
      "name": "totalAffiliateBalance",
      "outputs": [
        {
          "internalType": "uint256",
          "name": "",
          "type": "uint256"
        }
      ],
      "stateMutability": "view",
      "type": "function"
    },
    {
      "inputs": [
        {
          "internalType": "address",
          "name": "newOwner",
          "type": "address"
        }
      ],
      "name": "transferOwnership",
      "outputs": [],
      "stateMutability": "nonpayable",
      "type": "function"
    },
    {
      "inputs": [
        {
          "internalType": "address",
          "name": "_depo",
          "type": "address"
        }
      ],
      "name": "update_Depo",
      "outputs": [],
      "stateMutability": "nonpayable",
      "type": "function"
    },
    {
      "inputs": [
        {
          "internalType": "address",
          "name": "_staking",
          "type": "address"
        }
      ],
      "name": "update_Staking",
      "outputs": [],
      "stateMutability": "nonpayable",
      "type": "function"
    },
    {
      "inputs": [
        {
          "internalType": "address[]",
          "name": "tokens",
          "type": "address[]"
        }
      ],
      "name": "withdrawTokens",
      "outputs": [],
      "stateMutability": "nonpayable",
      "type": "function"
    },
    {
      "stateMutability": "payable",
      "type": "receive"
    }
  ],
  "transactionHash": "0xce0e3ecea2a350c316338aa1e8363bdef848061dbfee1175a63fa1e85b123fb9",
  "args": [
    "0x9025046c6fb25Fb39e720d97a8FD881ED69a1Ef6",
    "0xB63cac384247597756545b500253ff8E607a8020",
    "0x64aa3364F17a4D01c6f1751Fd97C2BD3D7e7f1D5",
    "0x04906695D6D12CF5459975d7C3C03356E4Ccd460",
    "0x0ab87046fBb341D058F17CBC4c1133F25a20a52f"
  ],
  "numDeployments": 2,
  "solcInputHash": "4002cd03fa7f3b122a17cf8370e3fd79",
  "bytecode": "0x60e06040523480156200001157600080fd5b5060405162002aa838038062002aa883398101604081905262000034916200013d565b600080546001600160a01b031916339081178255604051829190819083907f8be0079c531659141344cd1fd0a4f28419497f9722a3daafe3b4186f6b6457e0908290a35060029190915560035573def1c0ded9bec7f1a1670819833240f027b25eff60005260076020527ff6019cd1944dc466e824190b288e5a63528dd4c9a6d8cbd707956fd30d2f1e0d805460ff19166001179055600880546001600160a01b039687166001600160a01b03199182161790915560098054959096169416939093179093556001600160601b0319606091821b811660805292811b831660a0521b1660c052620001ac565b80516001600160a01b03811681146200013857600080fd5b919050565b600080600080600060a0868803121562000155578081fd5b620001608662000120565b9450620001706020870162000120565b9350620001806040870162000120565b9250620001906060870162000120565b9150620001a06080870162000120565b90509295509295909350565b60805160601c60a05160601c60c05160601c6128ae620001fa600039600081816102430152611c04015260006102c901526000818161052a0152818161124e0152611bd301526128ae6000f3fe6080604052600436106101b05760003560e01c80635de0398e116100ec578063a6c41fec1161008a578063e517e76411610064578063e517e7641461058f578063ef477482146105af578063f2fde38b146105c2578063fbec27bf146105e257600080fd5b8063a6c41fec14610518578063ce292acf1461054c578063d408f6571461055f57600080fd5b806375f12b21116100c657806375f12b21146104895780638da5cb5b146104aa5780639735a634146104c85780639779d1a6146104e857600080fd5b80635de0398e1461043e5780635ecb16cd14610454578063715018a61461047457600080fd5b806318b135e31161015957806345b3358c1161013357806345b3358c1461039e5780634cf088d9146103be5780634f51e294146103de578063550bfa561461041e57600080fd5b806318b135e31461033157806320740e9a1461035e5780633ff428c71461037e57600080fd5b80631385d24c1161018a5780631385d24c146102a257806315079925146102b75780631781261f146102eb57600080fd5b806301e980d4146102115780630cd30585146102315780630dc9de851461028257600080fd5b3661020c573332141561020a5760405162461bcd60e51b815260206004820152601860248201527f446f206e6f742073656e6420455448206469726563746c79000000000000000060448201526064015b60405180910390fd5b005b600080fd5b34801561021d57600080fd5b5061020a61022c3660046126bf565b610602565b34801561023d57600080fd5b506102657f000000000000000000000000000000000000000000000000000000000000000081565b6040516001600160a01b0390911681526020015b60405180910390f35b34801561028e57600080fd5b5061020a61029d3660046125de565b6106c6565b3480156102ae57600080fd5b5061020a610921565b3480156102c357600080fd5b506102657f000000000000000000000000000000000000000000000000000000000000000081565b3480156102f757600080fd5b5061032361030636600461243e565b600560209081526000928352604080842090915290825290205481565b604051908152602001610279565b34801561033d57600080fd5b5061032361034c366004612424565b60066020526000908152604090205481565b34801561036a57600080fd5b50600854610265906001600160a01b031681565b34801561038a57600080fd5b5061020a610399366004612470565b6109a5565b3480156103aa57600080fd5b5061020a6103b9366004612424565b610a18565b3480156103ca57600080fd5b50600954610265906001600160a01b031681565b3480156103ea57600080fd5b5061040e6103f9366004612424565b60046020526000908152604090205460ff1681565b6040519015158152602001610279565b34801561042a57600080fd5b5061020a6104393660046126bf565b610a8f565b34801561044a57600080fd5b5061032360025481565b34801561046057600080fd5b5061020a61046f3660046125de565b610b2d565b34801561048057600080fd5b5061020a610dbc565b34801561049557600080fd5b5060005461040e90600160a01b900460ff1681565b3480156104b657600080fd5b506000546001600160a01b0316610265565b3480156104d457600080fd5b5061020a6104e336600461261e565b610e5b565b3480156104f457600080fd5b5061040e610503366004612424565b60076020526000908152604090205460ff1681565b34801561052457600080fd5b506102657f000000000000000000000000000000000000000000000000000000000000000081565b61032361055a3660046124a6565b610fac565b34801561056b57600080fd5b5061040e61057a366004612424565b60016020526000908152604090205460ff1681565b34801561059b57600080fd5b5061020a6105aa366004612424565b61117a565b6103236105bd366004612547565b6111f1565b3480156105ce57600080fd5b5061020a6105dd366004612424565b611366565b3480156105ee57600080fd5b5061020a6105fd366004612470565b611492565b6000546001600160a01b0316331461064a5760405162461bcd60e51b815260206004820181905260248201526000805160206128598339815191526044820152606401610201565b60648111156106c15760405162461bcd60e51b815260206004820152602160248201527f416666696c696174652053706c69742056616c7565206e6f7420616c6c6f776560448201527f64000000000000000000000000000000000000000000000000000000000000006064820152608401610201565b600355565b6000805b8281101561091b573360009081526005602052604081209085858481811061070257634e487b7160e01b600052603260045260246000fd5b90506020020160208101906107179190612424565b6001600160a01b0316815260208082019290925260409081016000908120543382526005909352908120919350908186868581811061076657634e487b7160e01b600052603260045260246000fd5b905060200201602081019061077b9190612424565b6001600160a01b03166001600160a01b031681526020019081526020016000208190555081600660008686858181106107c457634e487b7160e01b600052603260045260246000fd5b90506020020160208101906107d99190612424565b6001600160a01b03166001600160a01b031681526020019081526020016000205461080491906127d3565b6006600086868581811061082857634e487b7160e01b600052603260045260246000fd5b905060200201602081019061083d9190612424565b6001600160a01b0316815260208101919091526040016000205573eeeeeeeeeeeeeeeeeeeeeeeeeeeeeeeeeeeeeeee84848381811061088c57634e487b7160e01b600052603260045260246000fd5b90506020020160208101906108a19190612424565b6001600160a01b031614156108bf576108ba3383611505565b610909565b61090933838686858181106108e457634e487b7160e01b600052603260045260246000fd5b90506020020160208101906108f99190612424565b6001600160a01b0316919061161e565b8061091381612816565b9150506106ca565b50505050565b6000546001600160a01b031633146109695760405162461bcd60e51b815260206004820181905260248201526000805160206128598339815191526044820152606401610201565b600080547fffffffffffffffffffffff00ffffffffffffffffffffffffffffffffffffffff8116600160a01b9182900460ff1615909102179055565b6000546001600160a01b031633146109ed5760405162461bcd60e51b815260206004820181905260248201526000805160206128598339815191526044820152606401610201565b6001600160a01b03919091166000908152600460205260409020805460ff1916911515919091179055565b6000546001600160a01b03163314610a605760405162461bcd60e51b815260206004820181905260248201526000805160206128598339815191526044820152606401610201565b6008805473ffffffffffffffffffffffffffffffffffffffff19166001600160a01b0392909216919091179055565b6000546001600160a01b03163314610ad75760405162461bcd60e51b815260206004820181905260248201526000805160206128598339815191526044820152606401610201565b6064811115610b285760405162461bcd60e51b815260206004820152601a60248201527f476f6f6457696c6c2056616c7565206e6f7420616c6c6f7765640000000000006044820152606401610201565b600255565b6000546001600160a01b03163314610b755760405162461bcd60e51b815260206004820181905260248201526000805160206128598339815191526044820152606401610201565b60005b81811015610db757600073eeeeeeeeeeeeeeeeeeeeeeeeeeeeeeeeeeeeeeee848484818110610bb757634e487b7160e01b600052603260045260246000fd5b9050602002016020810190610bcc9190612424565b6001600160a01b03161415610c5a5760066000858585818110610bff57634e487b7160e01b600052603260045260246000fd5b9050602002016020810190610c149190612424565b6001600160a01b03168152602081019190915260400160002054610c3890476127d3565b9050610c55610c4f6000546001600160a01b031690565b82611505565b610da4565b60066000858585818110610c7e57634e487b7160e01b600052603260045260246000fd5b9050602002016020810190610c939190612424565b6001600160a01b03166001600160a01b0316815260200190815260200160002054848484818110610cd457634e487b7160e01b600052603260045260246000fd5b9050602002016020810190610ce99190612424565b6040516370a0823160e01b81523060048201526001600160a01b0391909116906370a082319060240160206040518083038186803b158015610d2a57600080fd5b505afa158015610d3e573d6000803e3d6000fd5b505050506040513d601f19601f82011682018060405250810190610d6291906126d7565b610d6c91906127d3565b9050610da4610d836000546001600160a01b031690565b828686868181106108e457634e487b7160e01b600052603260045260246000fd5b5080610daf81612816565b915050610b78565b505050565b6000546001600160a01b03163314610e045760405162461bcd60e51b815260206004820181905260248201526000805160206128598339815191526044820152606401610201565b600080546040516001600160a01b03909116907f8be0079c531659141344cd1fd0a4f28419497f9722a3daafe3b4186f6b6457e0908390a36000805473ffffffffffffffffffffffffffffffffffffffff19169055565b6000546001600160a01b03163314610ea35760405162461bcd60e51b815260206004820181905260248201526000805160206128598339815191526044820152606401610201565b828114610ef25760405162461bcd60e51b815260206004820152601460248201527f496e76616c696420496e707574206c656e6774680000000000000000000000006044820152606401610201565b60005b83811015610fa557828282818110610f1d57634e487b7160e01b600052603260045260246000fd5b9050602002016020810190610f329190612687565b60076000878785818110610f5657634e487b7160e01b600052603260045260246000fd5b9050602002016020810190610f6b9190612424565b6001600160a01b031681526020810191909152604001600020805460ff191691151591909117905580610f9d81612816565b915050610ef5565b5050505050565b60008054600160a01b900460ff1615610ff05760405162461bcd60e51b815260206004820152600660248201526514185d5cd95960d21b6044820152606401610201565b6000610fff8b8b8760016116c7565b905060006110468c8b848c8c8c8080601f01602080910402602001604051908101604052809392919081815260200183838082843760009201919091525061183392505050565b600854909150611061908b906001600160a01b031683611b75565b6008546040517f7c770aae0000000000000000000000000000000000000000000000000000000081526004810186905260248101839052604481018790523360648201526001600160a01b03888116608483015290911690637c770aae9060a401606060405180830381600087803b1580156110dc57600080fd5b505af11580156110f0573d6000803e3d6000fd5b505050506040513d601f19601f8201168201806040525081019061111491906126ef565b5050604080513381526001600160a01b03808e16602083015291810183905290881660608201529093507f7ec3a67ed5aa3b5893b0a5fa562eb9f755a07e23e2602f330b18b7b8a81cd0c69060800160405180910390a150509998505050505050505050565b6000546001600160a01b031633146111c25760405162461bcd60e51b815260206004820181905260248201526000805160206128598339815191526044820152606401610201565b6009805473ffffffffffffffffffffffffffffffffffffffff19166001600160a01b0392909216919091179055565b60008054600160a01b900460ff16156112355760405162461bcd60e51b815260206004820152600660248201526514185d5cd95960d21b6044820152606401610201565b60006112448a8a8560016116c7565b905060006112ab8b7f0000000000000000000000000000000000000000000000000000000000000000848a8a8a8080601f01602080910402602001604051908101604052809392919081815260200183838082843760009201919091525061183392505050565b90506112b7818a611bc5565b92508783116113085760405162461bcd60e51b815260206004820152600d60248201527f4869676820536c697070616765000000000000000000000000000000000000006044820152606401610201565b604080513381526001600160a01b038b811660208301528183018690528616606082015290517f4a44abc58b2b53c726aeffc2dfee3b5ea1ba2132ca606a1d7e0994ccd625da279181900360800190a1505098975050505050505050565b6000546001600160a01b031633146113ae5760405162461bcd60e51b815260206004820181905260248201526000805160206128598339815191526044820152606401610201565b6001600160a01b03811661142a5760405162461bcd60e51b815260206004820152602660248201527f4f776e61626c653a206e6577206f776e657220697320746865207a65726f206160448201527f64647265737300000000000000000000000000000000000000000000000000006064820152608401610201565b600080546040516001600160a01b03808516939216917f8be0079c531659141344cd1fd0a4f28419497f9722a3daafe3b4186f6b6457e091a36000805473ffffffffffffffffffffffffffffffffffffffff19166001600160a01b0392909216919091179055565b6000546001600160a01b031633146114da5760405162461bcd60e51b815260206004820181905260248201526000805160206128598339815191526044820152606401610201565b6001600160a01b03919091166000908152600160205260409020805460ff1916911515919091179055565b804710156115555760405162461bcd60e51b815260206004820152601d60248201527f416464726573733a20696e73756666696369656e742062616c616e63650000006044820152606401610201565b6000826001600160a01b03168260405160006040518083038185875af1925050503d80600081146115a2576040519150601f19603f3d011682016040523d82523d6000602084013e6115a7565b606091505b5050905080610db75760405162461bcd60e51b815260206004820152603a60248201527f416464726573733a20756e61626c6520746f2073656e642076616c75652c207260448201527f6563697069656e74206d617920686176652072657665727465640000000000006064820152608401610201565b6040516001600160a01b038316602482015260448101829052610db79084907fa9059cbb00000000000000000000000000000000000000000000000000000000906064015b60408051601f198184030181529190526020810180517bffffffffffffffffffffffffffffffffffffffffffffffffffffffff167fffffffff0000000000000000000000000000000000000000000000000000000090931692909217909152611d9c565b6000806001600160a01b03861661175c57600034116117285760405162461bcd60e51b815260206004820152600b60248201527f4e6f204554482073656e740000000000000000000000000000000000000000006044820152606401610201565b61174873eeeeeeeeeeeeeeeeeeeeeeeeeeeeeeeeeeeeeeee348686611e81565b905061175481346127d3565b91505061182b565b600085116117ac5760405162461bcd60e51b815260206004820152601460248201527f496e76616c696420746f6b656e20616d6f756e740000000000000000000000006044820152606401610201565b34156117fa5760405162461bcd60e51b815260206004820152601360248201527f4554482073656e74207769746820746f6b656e000000000000000000000000006044820152606401610201565b61180f6001600160a01b038716333088611fae565b61181b86868686611e81565b905061182781866127d3565b9150505b949350505050565b6000846001600160a01b0316866001600160a01b03161415611856575082611b6c565b6001600160a01b03861615801561188957506001600160a01b03851673c02aaa39b223fe8d0a0e5c4f27ead9083c756cc2145b156118fe5773c02aaa39b223fe8d0a0e5c4f27ead9083c756cc26001600160a01b031663d0e30db0856040518263ffffffff1660e01b81526004016000604051808303818588803b1580156118dd57600080fd5b505af11580156118f1573d6000803e3d6000fd5b5050505050839050611b6c565b6001600160a01b03861673c02aaa39b223fe8d0a0e5c4f27ead9083c756cc214801561193157506001600160a01b038516155b156119bc576040517f2e1a7d4d0000000000000000000000000000000000000000000000000000000081526004810185905273c02aaa39b223fe8d0a0e5c4f27ead9083c756cc290632e1a7d4d90602401600060405180830381600087803b15801561199c57600080fd5b505af11580156119b0573d6000803e3d6000fd5b50505050839050611b6c565b60006001600160a01b0387166119d35750836119de565b6119de878587611b75565b60006119e987611fff565b6001600160a01b03861660009081526007602052604090205490915060ff16611a545760405162461bcd60e51b815260206004820152601560248201527f546172676574206e6f7420417574686f72697a656400000000000000000000006044820152606401610201565b6000856001600160a01b03168386604051611a6f919061272d565b60006040518083038185875af1925050503d8060008114611aac576040519150601f19603f3d011682016040523d82523d6000602084013e611ab1565b606091505b5050905080611b025760405162461bcd60e51b815260206004820152601560248201527f4572726f72205377617070696e6720546f6b656e7300000000000000000000006044820152606401610201565b81611b0c89611fff565b611b1691906127d3565b935060008411611b685760405162461bcd60e51b815260206004820152601860248201527f5377617070656420546f20496e76616c696420546f6b656e00000000000000006044820152606401610201565b5050505b95945050505050565b6001600160a01b0383161580611b9257506001600160a01b038216155b15611b9c57505050565b611bb16001600160a01b038416836000612095565b610db76001600160a01b0384168383612095565b6009546000908190611c02907f0000000000000000000000000000000000000000000000000000000000000000906001600160a01b031686611b75565b7f00000000000000000000000000000000000000000000000000000000000000006001600160a01b0316836001600160a01b03161415611ceb57600954604051631b0cd93b60e31b81523060048201526024810186905260006044820152600160648201526001600160a01b039091169063d866c9d890608401602060405180830381600087803b158015611c9657600080fd5b505af1158015611caa573d6000803e3d6000fd5b505050506040513d601f19601f82011682018060405250810190611cce91906126d7565b9050611ce46001600160a01b038416338361161e565b9050611d96565b600954604051631b0cd93b60e31b81523060048201526024810186905260016044820181905260648201526001600160a01b039091169063d866c9d890608401602060405180830381600087803b158015611d4557600080fd5b505af1158015611d59573d6000803e3d6000fd5b505050506040513d601f19601f82011682018060405250810190611d7d91906126d7565b9050611d936001600160a01b038416338361161e565b90505b92915050565b6000611df1826040518060400160405280602081526020017f5361666545524332303a206c6f772d6c6576656c2063616c6c206661696c6564815250856001600160a01b03166121f29092919063ffffffff16565b805190915015610db75780806020019051810190611e0f91906126a3565b610db75760405162461bcd60e51b815260206004820152602a60248201527f5361666545524332303a204552433230206f7065726174696f6e20646964206e60448201527f6f742073756363656564000000000000000000000000000000000000000000006064820152608401610201565b3360009081526001602052604081205460025460ff9091169015801590611ea55750825b8015611eaf575080155b15611fa55761271060025486611ec591906127b4565b611ecf9190612794565b6001600160a01b03851660009081526004602052604090205490925060ff1615611fa5576001600160a01b038616611f195773eeeeeeeeeeeeeeeeeeeeeeeeeeeeeeeeeeeeeeee95505b6000606460035484611f2b91906127b4565b611f359190612794565b6001600160a01b038087166000908152600560209081526040808320938c16835292905290812080549293508392909190611f7190849061277c565b90915550506001600160a01b03871660009081526006602052604081208054839290611f9e90849061277c565b9091555050505b50949350505050565b6040516001600160a01b038085166024830152831660448201526064810182905261091b9085907f23b872dd0000000000000000000000000000000000000000000000000000000090608401611663565b60006001600160a01b038216612016575047919050565b6040516370a0823160e01b81523060048201526001600160a01b038316906370a082319060240160206040518083038186803b15801561205557600080fd5b505afa158015612069573d6000803e3d6000fd5b505050506040513d601f19601f8201168201806040525081019061208d91906126d7565b90505b919050565b80158061213757506040517fdd62ed3e0000000000000000000000000000000000000000000000000000000081523060048201526001600160a01b03838116602483015284169063dd62ed3e9060440160206040518083038186803b1580156120fd57600080fd5b505afa158015612111573d6000803e3d6000fd5b505050506040513d601f19601f8201168201806040525081019061213591906126d7565b155b6121a95760405162461bcd60e51b815260206004820152603660248201527f5361666545524332303a20617070726f76652066726f6d206e6f6e2d7a65726f60448201527f20746f206e6f6e2d7a65726f20616c6c6f77616e6365000000000000000000006064820152608401610201565b6040516001600160a01b038316602482015260448101829052610db79084907f095ea7b30000000000000000000000000000000000000000000000000000000090606401611663565b6060612201848460008561220b565b90505b9392505050565b6060824710156122835760405162461bcd60e51b815260206004820152602660248201527f416464726573733a20696e73756666696369656e742062616c616e636520666f60448201527f722063616c6c00000000000000000000000000000000000000000000000000006064820152608401610201565b843b6122d15760405162461bcd60e51b815260206004820152601d60248201527f416464726573733a2063616c6c20746f206e6f6e2d636f6e74726163740000006044820152606401610201565b600080866001600160a01b031685876040516122ed919061272d565b60006040518083038185875af1925050503d806000811461232a576040519150601f19603f3d011682016040523d82523d6000602084013e61232f565b606091505b509150915061233f82828661234a565b979650505050505050565b60608315612359575081612204565b8251156123695782518084602001fd5b8160405162461bcd60e51b81526004016102019190612749565b80356001600160a01b038116811461209057600080fd5b60008083601f8401126123ab578182fd5b50813567ffffffffffffffff8111156123c2578182fd5b6020830191508360208260051b85010111156123dd57600080fd5b9250929050565b60008083601f8401126123f5578182fd5b50813567ffffffffffffffff81111561240c578182fd5b6020830191508360208285010111156123dd57600080fd5b600060208284031215612435578081fd5b61220482612383565b60008060408385031215612450578081fd5b61245983612383565b915061246760208401612383565b90509250929050565b60008060408385031215612482578182fd5b61248b83612383565b9150602083013561249b81612847565b809150509250929050565b60008060008060008060008060006101008a8c0312156124c4578485fd5b6124cd8a612383565b985060208a013597506124e260408b01612383565b96506124f060608b01612383565b955060808a013567ffffffffffffffff81111561250b578586fd5b6125178c828d016123e4565b909650945061252a905060a08b01612383565b925060c08a0135915060e08a013590509295985092959850929598565b60008060008060008060008060e0898b031215612562578384fd5b61256b89612383565b97506020890135965061258060408a01612383565b95506060890135945061259560808a01612383565b935060a089013567ffffffffffffffff8111156125b0578384fd5b6125bc8b828c016123e4565b90945092506125cf905060c08a01612383565b90509295985092959890939650565b600080602083850312156125f0578182fd5b823567ffffffffffffffff811115612606578283fd5b6126128582860161239a565b90969095509350505050565b60008060008060408587031215612633578384fd5b843567ffffffffffffffff8082111561264a578586fd5b6126568883890161239a565b9096509450602087013591508082111561266e578384fd5b5061267b8782880161239a565b95989497509550505050565b600060208284031215612698578081fd5b8135611d9381612847565b6000602082840312156126b4578081fd5b8151611d9381612847565b6000602082840312156126d0578081fd5b5035919050565b6000602082840312156126e8578081fd5b5051919050565b600080600060608486031215612703578081fd5b8351925060208401519150604084015161ffff81168114612722578182fd5b809150509250925092565b6000825161273f8184602087016127ea565b9190910192915050565b60208152600082518060208401526127688160408501602087016127ea565b601f01601f19169190910160400192915050565b6000821982111561278f5761278f612831565b500190565b6000826127af57634e487b7160e01b81526012600452602481fd5b500490565b60008160001904831182151516156127ce576127ce612831565b500290565b6000828210156127e5576127e5612831565b500390565b60005b838110156128055781810151838201526020016127ed565b8381111561091b5750506000910152565b600060001982141561282a5761282a612831565b5060010190565b634e487b7160e01b600052601160045260246000fd5b801515811461285557600080fd5b5056fe4f776e61626c653a2063616c6c6572206973206e6f7420746865206f776e6572a264697066735822122091222a19ea774491eec7467aa9a8d141266aef109ac42b1c8f4ebb95e7f4bdb264736f6c63430008040033",
  "devdoc": {
    "kind": "dev",
    "methods": {
      "ZapBond(address,uint256,address,address,bytes,address,uint256,uint256)": {
        "params": {
          "amountIn": "The quantity of fromToken being sent",
          "bondId": "The ID of the market",
          "fromToken": "The token used for entry (address(0) if ether)",
          "maxPrice": "The maximum price at which to buy the bond",
          "principal": "The token fromToken is being converted to (i.e. token or LP to bond)",
          "referral": "The front end operator address",
          "swapData": "DEX or Zap data",
          "swapTarget": "Excecution target for the swap or Zap"
        },
        "returns": {
          "OHMRec": "The quantity of gOHM due"
        }
      },
      "ZapStake(address,uint256,address,uint256,address,bytes,address)": {
        "params": {
          "amountIn": "The quantity of fromToken being sent",
          "fromToken": "The token used for entry (address(0) if ether)",
          "minToToken": "The minimum acceptable quantity sOHM or gOHM to receive. Reverts otherwise",
          "referral": "The front end operator address",
          "swapData": "DEX swap data",
          "swapTarget": "Excecution target for the swap",
          "toToken": "The token fromToken is being converted to (i.e. sOHM or gOHM)"
        },
        "returns": {
          "OHMRec": "The quantity of sOHM or gOHM received (depending on toToken)"
        }
      },
      "affilliateWithdraw(address[])": {
        "params": {
          "tokens": "An array of the tokens to withdraw (0xeee address if ETH)"
        }
      },
      "owner()": {
        "details": "Returns the address of the current owner."
      },
      "renounceOwnership()": {
        "details": "Leaves the contract without owner. It will not be possible to call `onlyOwner` functions anymore. Can only be called by the current owner. NOTE: Renouncing ownership will leave the contract without an owner, thereby removing any functionality that is only available to the owner."
      },
      "setApprovedTargets(address[],bool[])": {
        "details": "Adds or removes an approved swapTarget swapTargets should be Zaps and must not be tokens!",
        "params": {
          "targets": "An array of addresses of approved swapTargets"
        }
      },
      "set_affiliate(address,bool)": {
        "params": {
          "_affiliate": "The  affiliate's address",
          "_status": "The affiliate's approval status"
        }
      },
      "set_feeWhitelist(address,bool)": {
        "params": {
          "status": "The whitelisted status (true if whitelisted)",
          "zapAddress": "The Zap caller which is allowed to bypass fees (if > 0)"
        }
      },
      "set_new_affiliateSplit(uint256)": {
        "params": {
          "_new_affiliateSplit": "The new affiliate split between 0-1%"
        }
      },
      "set_new_goodwill(uint256)": {
        "params": {
          "_new_goodwill": "The new goodwill amount between 0-1%"
        }
      },
      "toggleContractActive()": {
        "details": "Toggles the contract's active state"
      },
      "transferOwnership(address)": {
        "details": "Transfers ownership of the contract to a new account (`newOwner`). Can only be called by the current owner."
      },
      "withdrawTokens(address[])": {
        "params": {
          "tokens": "An array of the tokens to withdraw (0xeee address if ETH)"
        }
      }
    },
    "version": 1
  },
  "userdoc": {
    "kind": "user",
    "methods": {
      "ZapBond(address,uint256,address,address,bytes,address,uint256,uint256)": {
        "notice": "This function acquires Olympus bonds with ETH or ERC20 tokens"
      },
      "ZapStake(address,uint256,address,uint256,address,bytes,address)": {
        "notice": "This function acquires OHM with ETH or ERC20 tokens and stakes it for sOHM/gOHM"
      },
      "affilliateWithdraw(address[])": {
        "notice": "Withdraws the affilliate share, retaining goodwill share"
      },
      "set_affiliate(address,bool)": {
        "notice": "Adds or removes an affiliate"
      },
      "set_feeWhitelist(address,bool)": {
        "notice": "Set address to true to bypass fees when calling this contract"
      },
      "set_new_affiliateSplit(uint256)": {
        "notice": "Sets the percentage to split the goodwill by to distribute to affiliates"
      },
      "set_new_goodwill(uint256)": {
        "notice": "Sets a goodwill amount"
      },
      "update_Depo(address)": {
        "notice": "update state for depo"
      },
      "update_Staking(address)": {
        "notice": "update state for staking"
      },
      "withdrawTokens(address[])": {
        "notice": "Withdraws goodwill share, retaining affilliate share"
      }
    },
    "version": 1
  },
  "storageLayout": {
    "storage": [
      {
        "astId": 3677,
        "contract": "contracts/zaps/OlympusZapV2.sol:Olympus_V2_Zap_In",
        "label": "_owner",
        "offset": 0,
        "slot": "0",
        "type": "t_address"
      },
      {
        "astId": 3787,
        "contract": "contracts/zaps/OlympusZapV2.sol:Olympus_V2_Zap_In",
        "label": "stopped",
        "offset": 20,
        "slot": "0",
        "type": "t_bool"
      },
      {
        "astId": 3794,
        "contract": "contracts/zaps/OlympusZapV2.sol:Olympus_V2_Zap_In",
        "label": "feeWhitelist",
        "offset": 0,
        "slot": "1",
        "type": "t_mapping(t_address,t_bool)"
      },
      {
        "astId": 3796,
        "contract": "contracts/zaps/OlympusZapV2.sol:Olympus_V2_Zap_In",
        "label": "goodwill",
        "offset": 0,
        "slot": "2",
        "type": "t_uint256"
      },
      {
        "astId": 3798,
        "contract": "contracts/zaps/OlympusZapV2.sol:Olympus_V2_Zap_In",
        "label": "affiliateSplit",
        "offset": 0,
        "slot": "3",
        "type": "t_uint256"
      },
      {
        "astId": 3802,
        "contract": "contracts/zaps/OlympusZapV2.sol:Olympus_V2_Zap_In",
        "label": "affiliates",
        "offset": 0,
        "slot": "4",
        "type": "t_mapping(t_address,t_bool)"
      },
      {
        "astId": 3808,
        "contract": "contracts/zaps/OlympusZapV2.sol:Olympus_V2_Zap_In",
        "label": "affiliateBalance",
        "offset": 0,
        "slot": "5",
        "type": "t_mapping(t_address,t_mapping(t_address,t_uint256))"
      },
      {
        "astId": 3812,
        "contract": "contracts/zaps/OlympusZapV2.sol:Olympus_V2_Zap_In",
        "label": "totalAffiliateBalance",
        "offset": 0,
        "slot": "6",
        "type": "t_mapping(t_address,t_uint256)"
      },
      {
        "astId": 3816,
        "contract": "contracts/zaps/OlympusZapV2.sol:Olympus_V2_Zap_In",
        "label": "approvedTargets",
        "offset": 0,
        "slot": "7",
        "type": "t_mapping(t_address,t_bool)"
      },
      {
        "astId": 1320,
        "contract": "contracts/zaps/OlympusZapV2.sol:Olympus_V2_Zap_In",
        "label": "depo",
        "offset": 0,
        "slot": "8",
        "type": "t_address"
      },
      {
        "astId": 1322,
        "contract": "contracts/zaps/OlympusZapV2.sol:Olympus_V2_Zap_In",
        "label": "staking",
        "offset": 0,
        "slot": "9",
        "type": "t_address"
      }
    ],
    "types": {
      "t_address": {
        "encoding": "inplace",
        "label": "address",
        "numberOfBytes": "20"
      },
      "t_bool": {
        "encoding": "inplace",
        "label": "bool",
        "numberOfBytes": "1"
      },
      "t_mapping(t_address,t_bool)": {
        "encoding": "mapping",
        "key": "t_address",
        "label": "mapping(address => bool)",
        "numberOfBytes": "32",
        "value": "t_bool"
      },
      "t_mapping(t_address,t_mapping(t_address,t_uint256))": {
        "encoding": "mapping",
        "key": "t_address",
        "label": "mapping(address => mapping(address => uint256))",
        "numberOfBytes": "32",
        "value": "t_mapping(t_address,t_uint256)"
      },
      "t_mapping(t_address,t_uint256)": {
        "encoding": "mapping",
        "key": "t_address",
        "label": "mapping(address => uint256)",
        "numberOfBytes": "32",
        "value": "t_uint256"
      },
      "t_uint256": {
        "encoding": "inplace",
        "label": "uint256",
        "numberOfBytes": "32"
      }
    }
  }
}